:02000004085F93
:10D0000000D05F08FCFF5F0800000600200005015B
:08D0100004017D150000000081
:10D018001348144908B5884205D0134A824202D001
:10D02800124B121A98471248124A0021124B121A30
:10D03800984712481249884205D0124A824202D0C3
:10D048000A4B121A984710481049884205D0104ACE
:10D05800824202D0054B121A9847014808BD00BF0A
:10D0680004AE071068EF5F0874AE07102D0D11109D
:10D0780074AE0710E8AF0710A10E111030E13F029F
:10D08800A8D05F0838E13F0238E13F02B0D05F081E
:0CD09800F0FF3F0219D05F08000000000C
:08D0A8009CD05F088CFD3F02E3
:10D0B000034613F8012B002AFBD1181A01387047D8
:10D0C00070B501F0C1FB0025054E064CA41BA40859
:10D0D000AC4200D170BD56F8043B98470135F7E7E4
:10D0E000CCFF3F02F0FF3F0200F015B808B500F09A
:10D0F0001BF8BDE8084001F05FBB00F06FBB00F01B
:10D100006DBB00F079BB0078B0FA80F04009704741
:10D1100001230370704708B501F072FABDE80840BA
:10D120004FF4165101F060BA70B52F4B8EB01888CD
:10D1300001F0FAFB2D4E306001F062FA2C4901F04B
:10D1400077F801F05DFA34680546002C49DA2D21A4
:10D1500001F072F861420A22284601F07CF8284664
:10D1600001F06DF823490AA801F0EFF80A223168AE
:10D1700006A801F02AF906A90AA801F050F91E49EB
:10D1800001F059F9014602A801F002F906A801F0E0
:10D1900091F80AA801F08EF8184B029A1B781849EA
:10D1A0008DF800300AA83C2300F0F6FC0B9C7CB103
:10D1B0006368013B63605BB9236820469B689847BE
:10D1C000A368013BA3601BB923682046DB6898472E
:10D1D00040F6B83000F064FB02A801F06BF80EB026
:10D1E00070BD2146B7E700BF78AE07107CAE0710D0
:10D1F0009CFD3F02AEFD3F02BDFD3F0274AE071035
:10D20000C0FD3F020022014B1A70704774AE071038
:10D2100009B504480068044B03441B685B6C029327
:10D2200009BD000004AE07103000000009B5044835
:10D230000068044B03441B685B68029309BD00004F
:10D2400004AE07100000000009B504480068044B54
:10D2500003441B685B69029309BD000004AE07101C
:10D260000000000009B504480068044B03441B6833
:10D270005B68029309BD000004AE071014000000B3
:10D2800009B504480068044B03441B681B6B0293F8
:10D2900009BD000004AE07101400000009B50448E1
:10D2A0000068044B03441B681B6A029309BD00001D
:10D2B00004AE07101000000009B504480068044BD4
:10D2C00003441B685B6A029309BD000004AE0710AB
:10D2D0001000000009B504480068044B03441B68B3
:10D2E0009B6A029309BD000004AE07101000000005
:10D2F00009B504480068044B03441B68DB6A0293C9
:10D3000009BD000004AE07101000000009B5044874
:10D310000068044B03441B681B6B029309BD0000AB
:10D3200004AE07101000000009B504480068044B63
:10D3300003441B685B6B029309BD000004AE071039
:10D340001000000009B504480068044B03441B6842
:10D350001B6C029309BD000004AE07101000000012
:10D3600009B504480068044B03441B685B690293D9
:10D3700009BD000004AE07104C00000009B50448C8
:10D380000068044B03441B689B68029309BD0000BE
:10D3900004AE07105000000009B504480068044BB3
:10D3A00003441B68DB68029309BD000004AE07104C
:10D3B0005000000009B504480068044B03441B6892
:10D3C000DB69029309BD000004AE071018000000DD
:10D3D00009B504480068044B03441B681B6A0293A8
:10D3E00009BD000004AE07101800000009B504488C
:10D3F0000068044B03441B68DB68029309BD00000E
:10D4000004AE07102400000009B504480068044B6E
:10D4100003441B681B69029309BD000004AE07109A
:10D420002400000009B504480068044B03441B684D
:10D430005B69029309BD000004AE071024000000E0
:10D4400009B504480068044B03441B689B690293B8
:10D4500009BD000004AE07102400000009B504480F
:10D460000068044B03441B68DB69029309BD00009C
:10D4700004AE07102400000009B504480068044BFE
:10D4800003441B681B6A029309BD000004AE071029
:10D490002400000009B504480068044B03441B68DD
:10D4A0009B6A029309BD000004AE0710240000002F
:10D4B00009B504480068044B03441B681B6C0293C5
:10D4C00009BD000004AE07102400000009B504489F
:10D4D0000068044B03441B681B68029309BD0000ED
:10D4E00004AE07103400000009B504480068044B7E
:10D4F00003441B685B68029309BD000004AE07107B
:10D500003400000009B504480068044B03441B685C
:10D510001B69029309BD000004AE0710340000002F
:10D5200009B504480068044B03441B685B69029317
:10D5300009BD000004AE07103400000009B504481E
:10D540000068044B03441B689B69029309BD0000FB
:10D5500004AE07103400000009B504480068044B0D
:10D5600003441B68DB69029309BD000004AE071089
:10D570003400000009B504480068044B03441B68EC
:10D580001B6A029309BD000004AE071034000000BE
:10D5900009B504480068044B03441B685B680293A8
:10D5A00009BD000004AE07100800000009B50448DA
:10D5B0000068044B03441B685B69029309BD0000CB
:10D5C00004AE07100800000009B504480068044BC9
:10D5D00003441B68DB6C029309BD000004AE071016
:10D5E0000800000009B504480068044B03441B68A8
:10D5F0005B6D029309BD000004AE07100800000037
:10D6000009B504480068044B03441B68D3F888300C
:10D61000029309BD04AE07100800000009B50448D4
:10D620000068044B03441B68D3F89430029309BD8F
:10D6300004AE07100800000009B504480068044B58
:10D6400003441B685B69029309BD000004AE071028
:10D650002C00000009B504480068044B03441B6813
:10D660001B6A029309BD000004AE07102C000000E5
:10D6700009B504480068044B03441B68DB6B029344
:10D6800009BD000004AE07102C00000009B50448D5
:10D690000068044B03441B685B68029309BD0000EB
:10D6A00004AE07102800000009B504480068044BC8
:10D6B00003441B689B68029309BD000004AE071079
:10D6C0002800000009B504480068044B03441B68A7
:10D6D000DB68029309BD000004AE071028000000BB
:10D6E00009B504480068044B03441B681B69029396
:10D6F00009BD000004AE07102800000009B5044869
:10D700000068044B03441B685B69029309BD000079
:10D7100004AE07102800000009B504480068044B57
:10D7200003441B689B69029309BD000004AE071007
:10D730002800000009B504480068044B03441B6836
:10D74000DB69029309BD000004AE07102800000049
:10D7500009B504480068044B03441B681B6A029324
:10D7600009BD000004AE07102800000009B50448F8
:10D770000068044B03441B681B6B029309BD000047
:10D7800004AE07102800000009B504480068044BE7
:10D7900003441B685B6B029309BD000004AE0710D5
:10D7A0002800000009B504480068044B03441B68C6
:10D7B0001B6C029309BD000004AE07102800000096
:10D7C00009B504480068044B03441B685B6C029372
:10D7D00009BD000004AE07102800000009B5044888
:10D7E0000068044B03441B681B68029309BD0000DA
:10D7F00004AE07100400000009B504480068044B9B
:10D8000003441B685B68029309BD000004AE071067
:10D810000400000009B504480068044B03441B6879
:10D820009B68029309BD000004AE071004000000CD
:10D8300009B504480068044B03441B68DB6A029383
:10D8400009BD000004AE07100400000009B504483B
:10D850000068044B03441B681B6B029309BD000066
:10D8600004AE07100400000009B504480068044B2A
:10D8700003441B681B6C029309BD000004AE071033
:10D880000400000009B504480068044B03441B6809
:10D890005B6C029309BD000004AE07100400000099
:10D8A0000021FFF783BE38B5046805467CB1636884
:10D8B000013B63605BB9236820469B689847A36877
:10D8C000013BA3601BB923682046DB6898472846C4
:10D8D00038BD10B5836804460BB901F039F9C36847
:10D8E0009847A3681BB1032221462046984720464B
:10D8F000BDE810401021FFF704BC10B58368044652
:10D9000013B1032201469847204610BD13B56C465B
:10D910000B460246D0E9000184E8030093E80300C7
:10D9200082E8030094E8030083E8030002B010BD1E
:10D93000002302480360FFF76BBC00BF80AE0710F6
:10D9400070470020704710B504461021FFF7D9FB3F
:10D95000204610BD08B5FFF7F6FF08BD002230B520
:10D960004FF69C74026084808D888C800C68858062
:10D9700004600A6030BD10B504460068FFF73CFF44
:10D98000204610BD38B5C46814B32378DBB2022B2F
:10D9900003D104F10C00FFF7EEFF231D1D6835B124
:10D9A0002846FFF7AAFF10212846FFF7AAFB04F13B
:10D9B00008031D6835B12846FFF79FFF1021284650
:10D9C000FFF79FFB2046BDE838401421FFF799BBC5
:10D9D00038BD0B6803604B68436013B15A6801326D
:10D9E0005A60704737B5044668460D46FFF7F1FFA9
:10D9F000009B019A23600023626001A801930093B9
:10DA0000FFF751FF35B1281DFFF74DFF08212846CC
:10DA1000FFF777FB204603B030BD826810B50AB926
:10DA200001F096F8C368BDE81040184708B50068D3
:10DA300000F11001FFF7F1FF08BD826810B50AB9C7
:10DA400001F086F8C368BDE81040184708B50068C3
:10DA500000F11001FFF7F1FF08BD000038B5002309
:10DA60000446036010200D46FFF747FB28B1012351
:10DA7000C0E90133024BC56003602060204638BD19
:10DA8000D4FD3F0238B5002383608B6804460D4601
:10DA90002BB102229847EB68E360AB68A360204695
:10DAA00038BD0000F0B589B004686846FFF756FF3E
:10DAB0004FF00203D4E84F2F002A03D1C4E8413FBE
:10DAC0000029F7D121D104F10C0569462846FFF75A
:10DAD00045FF0122631CC3E88F2F002004F10803D7
:10DAE000D3E8EF6FC3E8E20F002AF9D16EB1FFF778
:10DAF0006BFD78B129463046FFF78FFF3046FFF7C0
:10DB0000FCFE10213046FFF7FCFA6846FFF733FFB2
:10DB100009B0F0BD314602A8FFF7B4FFE068B4F9E0
:10DB2000105008B101F068F806901020ADF81C50B4
:10DB3000FFF7E3FA0546E8B1002787601820FFF7F2
:10DB4000DCFA044688B10146876002A8FFF7DEFED2
:10DB5000049BA268A360059B0492E26806A9E360A7
:10DB600004F110000592FFF7F9FE084B2C60EB6002
:10DB7000074BAB6006A8FFF7FEFE02A8FFF7BDFE4D
:10DB8000002229460348FFF72DFDB7E7B5EA3F021B
:10DB900031ED3F025BE93F022DE9F04F8BB00546C6
:10DBA0000F46904699469DF850A0FFF745FD07AEF9
:10DBB000834638BB4FF62E73059005A93046ADF865
:10DBC0001830FFF7CBFE1420FFF797FA044648B150
:10DBD000022303700123C0E901BB437031460C30BE
:10DBE000FFF7BCFE2846214640F8044BFFF736FFFE
:10DBF0003046FFF7C0FE05A8FFF7BDFE28460BB074
:10DC0000BDE8F08F0C2300241420CDE908440793CD
:10DC1000FFF773FA014618B1C0E90144047044707B
:10DC200004A80391FFF71AFF1E4B08200893FFF783
:10DC300064FA044610B103A9FFF7CBFE4A464146F9
:10DC4000384600965FFA8AF30994FFF703FDB8B9E6
:10DC5000039B01331B78DBB293B905934FF69C739A
:10DC600005A903A8ADF81830FFF71CFF05A8FFF7BA
:10DC700082FE05A80999FFF7B5FE06A8FFF713FE77
:10DC800003A905A8FFF7A5FE059B069A2B600023B4
:10DC90006A6006A806930593FFF705FE04A8FFF740
:10DCA00002FEABE7ADED3F02012AF8B5054603D110
:10DCB0000B6803600020F8BD022A10D0032AF9D1B6
:10DCC0000468002CF6D004F11000FFF754FE204643
:10DCD000FFF713FE18212046FFF713FAEAE7182092
:10DCE0000E68FFF70AFA044650B13146FFF7CAFE44
:10DCF0003069B6F9147008B100F07EFF2061A78288
:10DD00002C60D7E738B5002383608B6804460D4646
:10DD10002BB102229847EB68E360AB68A360204612
:10DD200038BD0000F0B5044689B00D4601A8114683
:10DD3000FFF758FEA4B124B21DB1284600F05CFFE5
:10DD4000054601A803A90395ADF81040FFF7AAFE08
:10DD500003A8FFF710FE02A8FFF7A5FD09B0F0BD6C
:10DD60000123019DD5E84F2F002A03D1C5E8413F8B
:10DD70000029F7D1EFD12B730122EB18C3E88F2FC5
:10DD80002B1DD3E8EF6FC3E8E24F002AF9D1002E34
:10DD9000E1D02046FFF718FC074660B1304605F198
:10DDA0000C01FFF74AFE3046FFF7A7FD1021304671
:10DDB000FFF7A7F9CFE7314603A8FFF7A3FF2B7BB7
:10DDC00010208DF81C30FFF798F90546D0B1876018
:10DDD0001420FFF792F9044678B10146876003A842
:10DDE000FFF794FD059BA268A360069B0592E2687D
:10DDF000E3609DF81C3006922374074B2C60EB60A7
:10DE0000064BAB6003A8FFF778FD002229460448C3
:10DE1000FFF7E8FBC7E700BFD5EA3F02ADEE3F02E0
:10DE20005BE93F02012A70B5044603D10B68036029
:10DE3000002070BD022A0CD0032AF9D10468002CFE
:10DE4000F6D02046FFF759FD14212046FFF759F977
:10DE5000EEE714200E68FFF750F9054620B1314671
:10DE6000FFF750FF337C2B742560E1E70022406808
:10DE70001146FFF76DBC002240681146FFF784BCD5
:10DE800000224068FFF772BC0022406881F0010167
:10DE9000FFF750BC002340681A461946FFF73CBC08
:10DEA000002340681A461946FFF728BC0022406844
:10DEB0001146FFF715BC002240681146FFF7F4BB7E
:10DEC000002202214068FFF7FDBB002340681A468C
:10DED000FFF7DCBB0322024B5A60024A1A6070470C
:10DEE00084AE0710F0FD3F027047F8B506461546B0
:10DEF0000C468F18BC4206D0336830469B6814F835
:10DF0000011B9847F6E72846F8BD0022007CFFF782
:10DF1000C5B90021007CFFF7CFB90021007CFFF7D5
:10DF2000D9B90021007CFFF7E3B90021007CFFF79D
:10DF3000EDB910B504461421FFF7E3F8204610BDF3
:10DF400038B5044615464FF47A730022C4E901231C
:10DF5000094B0846217423602946FFF7F3F9BF30C7
:10DF600008D16B69DB0705D56868FFF745FCE868F1
:10DF7000FFF742FC204638BD2CFE3F02704710B52B
:10DF800004461821FFF7BDF8204610BDF0B5037D0B
:10DF90000E46062B4FF000048DB000F1040712D09E
:10DFA00000F1080515F8011D0A22304600F053F96A
:10DFB000AF42044419D0002CF4D02E21304600F09A
:10DFC0003BF90444EEE72F236A4639460A208DF8D0
:10DFD0000040FFF7C5F96846FFF76AF83368024664
:10DFE00069463046DB689847044620460DB0F0BDD0
:10DFF00010B50446044B1122002140F8043B00F008
:10E00000BDFD204610BD00BF54FE3F020346074A37
:10E0100010B543F8042B01F1100251F8044B914262
:10E0200043F8044BF9D10A781A7010BD54FE3F0230
:10E0300010B59DF8084044EA032343EA0242042352
:10E0400042EA01614160037510BD000007B5064B4F
:10E050000360CB7800938B784A780978FFF7E8FF64
:10E0600003B05DF804FB00BF54FE3F02014B024ABF
:10E070001A6070478CAE071060FE3F0200234068B4
:10E080001A46FFF703BB002202214068FFF71ABBC4
:10E09000002240681146FFF707BB00224068114686
:10E0A000FFF71EBB002340681A461946FFF726BB40
:10E0B000002340681A461946FFF72EBB002140682E
:10E0C000FFF770BB00214068FFF77ABB0022406871
:10E0D00081F00101FFF72EBB00224068FFF746BB2D
:10E0E000002240681146FFF74FBB002240681146EE
:10E0F000FFF72EBB2DE9F04395B014460D460746B9
:10E10000FFF776FF00211C220DA8009100F036FDDC
:10E11000402320460C9300216B460CAAFFF73CF9E4
:10E12000044600284BD1024601216868FFF7D8FA5F
:10E130000221804622466868FFF7D2FA21468146CE
:10E14000009E002E3BD0002939D17368022B03D0EA
:10E150000A2B11D0F669F4E7B8F1000FFAD0716913
:10E1600006A804313C1D07ADFFF770FF0FCD0FC4AB
:10E170002B6841462370EDE7B9F1000FEAD0102279
:10E1800001A8746900F0FAFC062301AD8DF8143083
:10E1900004F1080318342A4618685968083303C282
:10E1A000A3421546F7D101A906A83C1D07ADFFF70C
:10E1B0002DFF0FCD0FC42B6849462370CAE7009886
:10E1C000FFF7DCF8384615B0BDE8F083024B034A90
:10E1D0001A6000225A60704790AE07106CFE3F0232
:10E1E000F8B506460D4600248F18BD420CD03368A2
:10E1F00030469B6815F8011B9847031E01DB1C4441
:10E20000F3E7002C08BF1C462046F8BD13B50446B2
:10E21000084659B10191FEF74BFF0246204623689C
:10E220000199DB6802B0BDE81040184702B010BD8C
:10E2300008B5FFF7EBFF08BD03689B68184738B5C2
:10E240000D210546FFF7F8FF0A2104462846FFF78F
:10E25000F3FF204438BD0023012A98BF0A2230B5BD
:10E260008BB08DF8243009AC0D46B1FBF2F101FB07
:10E27000125303F0FF03092B94BF30333733DBB263
:10E28000AA4204F8013DEFD92146FFF7BFFF0BB0CA
:10E2900030BD00000022014B9A60704798AE071015
:10E2A00010B5044608462170FFF784F80023204685
:10E2B000636010BD10B504460068FFF79DFA204664
:10E2C00010BD10B50446006808B1FFF795FA0023A9
:10E2D000C4E90133236010BD38B504460D4600681B
:10E2E0000131FFF797FA10B1C4E90005012038BDEC
:10E2F00010B50368044623B143688B4201D3012063
:10E3000010BD2046FFF7E8FF0028F9D0A368002BD6
:10E31000F5D122681370F2E737B50D461146019228
:10E320000446FFF7E5FF019A28B92046FFF7C9FF29
:10E33000204603B030BD2946A260206800F011FCE1
:10E3400000212268A368D154F2E7002313B50446E4
:10E35000C0E900338360037341B108460191FEF7C1
:10E36000A7FE019902462046FFF7D6FF204602B0DD
:10E3700010BD884210B5044605D00B682BB18A68E1
:10E380001946FFF7C9FF204610BDFFF79AFFFAE7CD
:10E39000002310B50446C0E9003383600373FFF720
:10E3A000E8FF204610BD13B5044659B10846019157
:10E3B000FEF77EFE019902462046FFF7ADFF20469C
:10E3C00002B010BDFFF77DFFF9E710B5002304464A
:10E3D0008AB0C4E90033A3602373084601A900F0A2
:10E3E000A7F9204601A9FFF7DEFF20460AB010BDBD
:10E3F00070B505460E4609B9002070BD6AB1846843
:10E4000014442146FFF774FF0028F5D02868AB6854
:10E410003146184400F0E8FBAC600120EDE710B590
:10E420008A6809680446FFF7E3FF10B92046FFF742
:10E4300048FF204610BD13B5044629B92046FFF712
:10E4400040FF204602B010BD08460191FEF730FEA5
:10E45000019902462046FFF7CBFF0028EED0F0E7F7
:10E4600002220020044B1A60044B054AC3E9000055
:10E470009A60FFF78DB800BFB4AE0710A8AE0710C2
:10E480000000FFFF024B1A68024B1A60704700BF82
:10E4900008AE0710B8AE071070474174704708B552
:10E4A000007CFEF7F7FF20EAE07008BD08B5007CAD
:10E4B000FEF7AAFF20EAE07008BD08B5007CFEF771
:10E4C000BFFF40EAE07008BD08B5007CFEF7AAFF78
:10E4D00040EAE07008BD007CFEF7C0BF37B5457C60
:10E4E00004462DB1207C03B0BDE83040FEF77EBF6E
:10E4F000007C0191FEF7CEFF00280199F2DC28464E
:10E5000003B030BD10B504461421FEF7FAFD2046D5
:10E5100010BD000010B54FF47A730446084611464A
:10E520000022C4E90123044B207423600123637497
:10E53000FEF7BEFF204610BDC4FE3F02007CFEF782
:10E540009BBF417470477047704708B50021007C3D
:10E55000FEF7F4FF40EAE07008BD08B50121007C39
:10E56000FEF7ECFF40EAE07008BD08B5007CFEF75E
:10E57000D7FF20EAE07008BD08B5007CFEF7C2FFB7
:10E5800020EAE07008BD13B50446007C0191FEF757
:10E59000C7FF0028019901DC607C20B1207CFEF7D8
:10E5A000DBFF20EAE07002B010BD007CFEF7E2BFA6
:10E5B00010B504461421FEF7A4FD204610BD00004E
:10E5C00010B54FF47A73044608460021C4E90113DC
:10E5D000044B20742360012311466374FEF776FF19
:10E5E000204610BDF4FE3F020022007CFEF77CBFF7
:10E5F00010B504461422002100F0C0FA204610BDD8
:10E6000010B588B003A8FFF7F3FF0C4CD4E88F1FB8
:10E6100011F001010FD120460191FEF774FD01991F
:10E6200048B103AA0648FFF7CBFF2046FEF770FD6E
:10E63000044800F090FA024808B010BDBCAE0710C4
:10E64000C0AE0710CFF53F02002240681146FFF729
:10E6500047B8002240681146FFF77AB800224068A8
:10E660001146FFF791B800224068FFF77FB80022FB
:10E67000406881F00101FFF75DB8002340681A4649
:10E680001946FFF749B8002340681A461946FFF7B4
:10E6900035B8002240681146FFF706B80022022173
:10E6A0004068FFF70FB8002340681A46FEF7EEBF38
:10E6B0000422024B5A60024A1A607047D4AE071017
:10E6C00024FF3F0210B50446FEF7F2FC0138231880
:10E6D0002046834206D90278197800F8011B03F816
:10E6E0000129F6E710BD70B50C46911E22291DD8F0
:10E6F000254630B9302223449D4210D205F8012B23
:10E70000FAE7B0FBF2F602FB1600C1B2092894BF8B
:10E7100030315731C9B2304605F8011BE9E7002313
:10E7200020462B70FFF7CEFF204670BD0020FCE78F
:10E7300038B5031E0C4615460DDA2D22B3F1004FF5
:10E740000CBF1846584201230A702A461944FFF7A5
:10E75000CAFF204638BD0123F9E70000014B1860CD
:10E76000704700BF0CAE071008B50F4B43B1FFF761
:10E7700047FF03681B699847002801DD00E000BFE0
:10E780000A4B43B100F052F903681B69984700280F
:10E7900001DD00E000BF064B0BB100F08DF9054B29
:10E7A0000BB100F0BFF908BD000000000000000040
:10E7B000000000000000000008B5FFF7D5FFFEF7DD
:10E7C00043FD014B186008BDF0AE07100548064A2E
:10E7D00008B5121A054900F0C4F9054B054A1A603C
:10E7E00008BD00BF00B4071004B40710D8EF5F08DD
:10E7F00000B407101E1C279A002307B51A466FF0B5
:10E8000077010093FEF70AFF03B05DF804FB0000F8
:10E8100007B543880A2B08D0502B0BD1094B1B6836
:10E820004BB103B05DF804EB1847FFF7E5FF03B009
:10E830005DF804FB00231A466FF077010093FEF7A2
:10E84000EDFEF4E7E0AE0710002110B51148FFF728
:10E8500019F8114B1A68114B9A420CBF0122002281
:10E860000F4B1A7001D0FFF7B1FFFEF7DFFC044633
:10E8700000F08CF90B4B13B1204600E000BF0021E3
:10E880000848FEF7F5FEBDE8104000210648FEF7F7
:10E89000B7BE00BFE5F73F0200B407101E1C279A61
:10E8A000DCAE07100000000099F83F021B2837B5C6
:10E8B000044602D9002003B030BDA0F10F03022BA3
:10E8C0000BD9012821D800F05DF80021007CFEF76B
:10E8D0002BFD80F00100C0B2EDE7114DD5E88F1F90
:10E8E00011F001010BD128460191FEF70CFC0199B2
:10E8F00028B10C48FFF7D4FC2846FEF709FC094B69
:10E900001878FEF765FD0028D4D1083C012C05D805
:10E9100000F08CF8007CFEF7AFFDDAE70120CAE7D3
:10E92000E4AE0710E8AE071010B50446FFF7BEFFCF
:10E9300050B103212046FEF795FC032804D1204660
:10E94000BDE81040FEF79CBC002010BD70470000E1
:10E9500038B50A4B0446036001230949436120206E
:10E9600000F0F4F82025606005492846A56000F015
:10E97000EDF8C4E90305204638BD00BF18000100CA
:10E9800058FF3F0230B50E4D87B0D5E88F1F11F00C
:10E99000010411D12846FEF7B6FB68B16846FFF7BF
:10E9A000D7FF6A4621460748FFF7CAFA2846FEF70E
:10E9B000AFFB054800F0CFF8024807B030BD00BFFC
:10E9C000F4AE0710F8AE0710D5F93F02704700000B
:10E9D00038B5142504462A46002100F0CFF82580DA
:10E9E0004025074928462581258200F0AFF80449D3
:10E9F0006060284600F0AAF8E060204638BD00BFFD
:10EA000058FF3F027047704710B50446FFF7E0FF1C
:10EA1000204610BD10B50446FFF7DAFF204610BDB2
:10EA200010B50446FFF7D4FF204610BD30B50E4D9B
:10EA300087B0D5E88F1F11F0010411D12846FEF7E9
:10EA400062FB68B101A8FFF7DFFF214601AA074872
:10EA5000FFF760FD2846FEF75BFB054800F07BF8FA
:10EA6000024807B030BD00BF0CAF071018AF071049
:10EA700055FA3F0210B50D4C86B0D4E88F3FDB0746
:10EA800011D42046FEF73FFB68B101A8FFF7C2FF93
:10EA9000012101AA0648FFF73DFD2046FEF738FB9D
:10EAA000044800F058F8024806B010BD10AF071037
:10EAB0002CAF07108FFA3F0210B5FFF7DBFF074BB3
:10EAC000044653B1FFF73AFD38B1236820461B696D
:10EAD0009847002801DD00E000BF10BD00000000E5
:10EAE00010B50D4C86B0D4E88F3FDB0711D420461B
:10EAF000FEF709FB68B101A8FFF792FF022101AA06
:10EB00000648FFF707FD2046FEF702FB044800F029
:10EB100022F8024806B010BD14AF071040AF07102E
:10EB20008DFA3F0210B5FFF7DBFF074B044653B1E8
:10EB3000FFF704FD38B1236820461B699847002879
:10EB400001DD00E000BF10BD00000000FEF7D7BAF5
:10EB500008B5FEF76DFE002301461A46184600F080
:10EB600069B80A44431E914200D1704710B511F8AC
:10EB7000014B914203F8014FF9D110BD0244034605
:10EB8000934200D1704703F8011BF9E738B5104BE9
:10EB900004461D68AB6BB3B91820FEF71FFE024692
:10EBA000A86320B90B4B42210B48FEF75DFE0B49D1
:10EBB0000B4BC0E900130B4B002183600B238381B7
:10EBC0000120C2E90401AB6B00221C615A6138BD0F
:10EBD0000CAE071059FF3F0270FF3F020E33CDAB62
:10EBE00034126DE6ECDE0500034611F8012B03F844
:10EBF000012B002AF9D17047024B0146186800F03A
:10EC000003B800BF0CAE071037B5044608460D46E2
:10EC1000FEF74EFA421C204611460192FEF716FE00
:10EC2000044618B1019A2946FFF79BFF204603B01E
:10EC300030BD00002DE9F843DFF8BC8006461F46D2
:10EC40000D46D8F80000914600F058F8264B1C6895
:10EC500034B9264C1C60264B13B11B68C4F88830AD
:10EC600063681F2B07DDD8F8000000F049F84FF06B
:10EC7000FF30BDE8F8835EB3D4F8880088B91D4B37
:10EC800023B9D8F8000000F03AF8F0E74FF48470A8
:10EC9000FEF7A4FD0028F4D00023C0E94033C4F8F7
:10ECA000880063680122022E40F8239002FA03F2E2
:10ECB00000EB8301D0F8003143EA0203C0F80031D1
:10ECC000C1F8807002BFD0F804311343C0F804319A
:10ECD0006368D8F800005A1C0233626044F823507D
:10ECE00000F00EF80020C4E7E0AF071054AF0710A3
:10ECF0000000000065E83F0270AE071070477047E3
:10ED00007047000049E13F0271E13F0275E13F02B7
:10ED100000000000416E616C6F672072656164697C
:10ED20006E67203D20007B20616E616C6F677265AD
:10ED300061643A2000207D0073656E736F727661A6
:10ED40006C0000000000000000000000C9E93F0264
:10ED5000CFE93F020DEA3F02DDE93F02CBE93F0286
:10ED6000000000000000000053EF3F0249EF3F02A7
:10ED70003FEF3F0235EF3F0229EF3F021DEF3F0219
:10ED800045F13F024DF13F0211EF3F0209EF3F0213
:10ED9000FFEE3F02F5EE3F027DF13F020000000072
:10EDA0000000000071EF3F02BBEF3F0293EF3F0214
:10EDB00073EF3F029BEF3F02A3EF3F02ABEF3F0237
:10EDC000B3EF3F02000000000000000015F03F021A
:10EDD00005F03F0207F03F02617070000000000084
:10EDE0000000000005F13F020FF13F0219F13F0260
:10EDF00023F13F022DF13F0239F13F0245F13F027D
:10EE00004DF13F0255F13F0261F13F0269F13F02CE
:10EE100073F13F027DF13F0225592D256D2D2564AB
:10EE20005425483A254D3A2553257A006173637479
:10EE3000696D6500000000000000000021F53F0240
:10EE40008DF53F0265F53F0269F23F0235F53F025D
:10EE500051F53F0243F53F025FF53F0223F53F02C4
:10EE600027F53F020000000000000000D1F53F023E
:10EE700039F63F020FF63F0269F23F0201F63F0208
:10EE8000D3F53F02E3F53F0233F63F02F3F53F02CD
:10EE9000CBF53F0200000000000000002FF73F020A
:10EEA00025F73F021BF73F02D1F63F020FF73F0263
:10EEB00003F73F0245F13F024DF13F02F7F63F02F3
:10EEC000EFF63F02E5F63F02DBF63F027DF13F023F
:10EED000005245454E54206D616C6C6F6320737514
:10EEE00063636565646564002F746D702F6A656E79
:10EEF0006B696E732D4743432D31302D70697065FA
:10EF00006C696E652D34385F3230323031313234D5
:10EF10005F313630363138303633392F7372632FE4
:10EF20006E65776C69622F6E65776C69622F6C69AC
:10EF300062632F7374646C69622F72616E642E63F6
:10EF4000000000008DE23F02B9E93F025DEF3F02A1
:10EF5000F5F03F0255F23F021DF33F02E9F43F0294
:08EF60000DF53F0239F73F02F5
:10EF680000000002B4FE3F0210AE071000000000CF
:10EF78000000000000000000000000000000000089
:10EF88000000000000000000000000000000000079
:10EF98000000000000000000000000000000000069
:10EFA8000000000000000000000000000000000059
:10EFB8000000000000000000000000000000000049
:10EFC800000000000000000000000000E4AF07108F
:04EFD8000000000035
:10FFBE000200100000D05F08A8D05F0830E13F02B9
:10FFCE0001000A00FFFFFFFFFFFF00000102030414
:10FFDE0005060708090A0B0C0D0E0F10111213144B
:0EFFEE0015161718191A1B1C1D1E1F203E0089
:04FFFC0078563412ED
:04000005085FD018A8
:00000001FF
