:02000004085F93
:10E0000000E05F08FCFF5F0800000600200005013B
:08E0100004017D150000000071
:10E018001348144908B5884205D0134A824202D0F1
:10E02800124B121A98471248124A0021124B121A20
:10E03800984712481249884205D0124A824202D0B3
:10E048000A4B121A984710481049884205D0104ABE
:10E05800824202D0054B121A9847014808BD00BFFA
:10E06800F8AD071028FF5F0874AE07102D0D1110CA
:10E0780074AE0710E8AF0710A10E111070E13F024F
:10E08800A8E05F0878E13F0278E13F02B0E05F086E
:0CE09800F0FF3F0219E05F0800000000EC
:08E0A8009CE05F08A4FD3F02AB
:10E0B000034613F8012B002AFBD1181A01387047C8
:10E0C00070B501F0A3FB0025054E064CA41BA40867
:10E0D000AC4200D170BD56F8043B98470135F7E7D4
:10E0E000CCFF3F02F0FF3F0200F024B808B500F07B
:10E0F0004FF8BDE8084001F041BB00F093BB00F0D1
:10E1000091BB00F09DBB0078B0FA80F040097047E9
:10E110000123037070470EB403B503AB53F8042B0F
:10E120000021019301F0CDF802B05DF804EB03B0DB
:10E130007047000008B501F045FA4FF4165101F0A0
:10E1400035FA064B0121188801F0D0FB044B03215E
:10E150001888BDE8084001F0C9BB00BF04AE071035
:10E1600000AE071038B5046805467CB16368013B12
:10E1700063605BB9236820469B689847A368013BAE
:10E18000A3601BB923682046DB689847284638BD42
:10E1900030B5214B89B0188801F0B9FB1F4C0A2219
:10E1A0002060216804A801F02AF901F00BFA226826
:10E1B0001B49FFF7B0FF23681A4D012B0FD12B68C5
:10E1C0006BB9194B19491B7802A88DF80030049AD5
:10E1D0003C23096800F0FCFC03A8FFF7C3FF236899
:10E1E00083B92B68012B0DD10F4B10491B7802A866
:10E1F0008DF80030049A3C23096800F0E9FC03A87C
:10E20000FFF7B0FF236864202B6000F07BFB04A8BD
:10E2100001F098F809B030BD00AE071078AE0710D5
:10E22000B4FD3F027CAE071074AE0710FCAD0710C2
:10E230000122014B1A70704774AE071009B50448EB
:10E240000068044B03441B685B6C029309BD00002B
:10E25000F8AD07103000000009B504480068044B11
:10E2600003441B685B68029309BD0000F8AD07100A
:10E270000000000009B504480068044B03441B6813
:10E280005B69029309BD0000F8AD071000000000B3
:10E2900009B504480068044B03441B689B6802935B
:10E2A00009BD0000F8AD07101400000009B50448CE
:10E2B0000068044B03441B68DB68029309BD00003F
:10E2C000F8AD07101400000009B504480068044BBD
:10E2D00003441B685B69029309BD0000F8AD071099
:10E2E0001400000009B504480068044B03441B688F
:10E2F0001B6A029309BD0000F8AD07101000000072
:10E3000009B504480068044B03441B685B6A029328
:10E3100009BD0000F8AD07101000000009B5044861
:10E320000068044B03441B689B6A029309BD00000C
:10E33000F8AD07101000000009B504480068044B50
:10E3400003441B68DB6A029309BD0000F8AD0710A7
:10E350001000000009B504480068044B03441B6822
:10E360001B6B029309BD0000F8AD07101000000000
:10E3700009B504480068044B03441B685B6B0293B7
:10E3800009BD0000F8AD07101000000009B50448F1
:10E390000068044B03441B681B6C029309BD00001A
:10E3A000F8AD07101000000009B504480068044BE0
:10E3B00003441B685B69029309BD0000F8AD0710B8
:10E3C0004C00000009B504480068044B03441B6876
:10E3D0009B68029309BD0000F8AD071050000000D3
:10E3E00009B504480068044B03441B68DB680293CA
:10E3F00009BD0000F8AD07105000000009B5044841
:10E400000068044B03441B68DB69029309BD0000EC
:10E41000F8AD07101800000009B504480068044B67
:10E4200003441B681B6A029309BD0000F8AD071086
:10E430001800000009B504480068044B03441B6839
:10E44000DB68029309BD0000F8AD0710240000004E
:10E4500009B504480068044B03441B681B69029318
:10E4600009BD0000F8AD07102400000009B50448FC
:10E470000068044B03441B685B69029309BD0000FC
:10E48000F8AD07102400000009B504480068044BEB
:10E4900003441B689B69029309BD0000F8AD071097
:10E4A0002400000009B504480068044B03441B68BD
:10E4B000DB69029309BD0000F8AD071024000000DD
:10E4C00009B504480068044B03441B681B6A0293A7
:10E4D00009BD0000F8AD07102400000009B504488C
:10E4E0000068044B03441B689B6A029309BD00004B
:10E4F000F8AD07102400000009B504480068044B7B
:10E5000003441B681B6C029309BD0000F8AD0710A3
:10E510002400000009B504480068044B03441B684C
:10E520001B68029309BD0000F8AD0710340000001D
:10E5300009B504480068044B03441B685B680293F8
:10E5400009BD0000F8AD07103400000009B504480B
:10E550000068044B03441B681B69029309BD00005B
:10E56000F8AD07103400000009B504480068044BFA
:10E5700003441B685B69029309BD0000F8AD0710F6
:10E580003400000009B504480068044B03441B68CC
:10E590009B69029309BD0000F8AD0710340000002C
:10E5A00009B504480068044B03441B68DB69029307
:10E5B00009BD0000F8AD07103400000009B504489B
:10E5C0000068044B03441B681B6A029309BD0000EA
:10E5D000F8AD07103400000009B504480068044B8A
:10E5E00003441B685B68029309BD0000F8AD071087
:10E5F0000800000009B504480068044B03441B6888
:10E600005B69029309BD0000F8AD07100800000027
:10E6100009B504480068044B03441B68DB6C029393
:10E6200009BD0000F8AD07100800000009B5044856
:10E630000068044B03441B685B6D029309BD000036
:10E64000F8AD07100800000009B504480068044B45
:10E6500003441B68D3F88830029309BDF8AD071056
:10E660000800000009B504480068044B03441B6817
:10E67000D3F89430029309BDF8AD071008000000EC
:10E6800009B504480068044B03441B685B690293A6
:10E6900009BD0000F8AD07102C00000009B50448C2
:10E6A0000068044B03441B681B6A029309BD000009
:10E6B000F8AD07102C00000009B504480068044BB1
:10E6C00003441B68DB6B029309BD0000F8AD071023
:10E6D0002C00000009B504480068044B03441B6883
:10E6E0005B68029309BD0000F8AD07102800000028
:10E6F00009B504480068044B03441B689B680293F7
:10E7000009BD0000F8AD07102800000009B5044855
:10E710000068044B03441B68DB68029309BD0000DA
:10E72000F8AD07102800000009B504480068044B44
:10E7300003441B681B69029309BD0000F8AD071074
:10E740002800000009B504480068044B03441B6816
:10E750005B69029309BD0000F8AD071028000000B6
:10E7600009B504480068044B03441B689B69029385
:10E7700009BD0000F8AD07102800000009B50448E5
:10E780000068044B03441B68DB69029309BD000069
:10E79000F8AD07102800000009B504480068044BD4
:10E7A00003441B681B6A029309BD0000F8AD071003
:10E7B0002800000009B504480068044B03441B68A6
:10E7C0001B6B029309BD0000F8AD07102800000084
:10E7D00009B504480068044B03441B685B6B029353
:10E7E00009BD0000F8AD07102800000009B5044875
:10E7F0000068044B03441B681B6C029309BD0000B6
:10E80000F8AD07102800000009B504480068044B63
:10E8100003441B685B6C029309BD0000F8AD071050
:10E820002800000009B504480068044B03441B6835
:10E830001B68029309BD0000F8AD0710040000003A
:10E8400009B504480068044B03441B685B680293E5
:10E8500009BD0000F8AD07100400000009B5044828
:10E860000068044B03441B689B68029309BD0000C9
:10E87000F8AD07100400000009B504480068044B17
:10E8800003441B685B6A029309BD0000F8AD0710E2
:10E890000400000009B504480068044B03441B68E9
:10E8A000DB6A029309BD0000F8AD07100400000008
:10E8B00009B504480068044B03441B681B6B0293B2
:10E8C00009BD0000F8AD07100400000009B50448B8
:10E8D0000068044B03441B681B6C029309BD0000D5
:10E8E000F8AD07100400000009B504480068044BA7
:10E8F00003441B685B6C029309BD0000F8AD071070
:10E90000040000000021FFF775BE10B583680446BF
:10E910000BB901F011F9C3689847A3681BB1032232
:10E920002146204698472046BDE810401021FFF7B9
:10E93000E8BB10B58368044613B10322014698472B
:10E94000204610BD13B56C460B460246D0E90001C7
:10E9500084E8030093E8030082E8030094E80300DE
:10E9600083E8030002B010BD002302480360FFF7F4
:10E9700065BC00BF80AE071070470020704710B51F
:10E9800004461021FFF7BDFB204610BD08B5FFF778
:10E99000F6FF08BD002230B54FF69C7402608480FB
:10E9A0008D888C800C68858004600A6030BD10B54D
:10E9B00004460068FFF744FF204610BD38B5C46820
:10E9C00014B32378DBB2022B03D104F10C00FFF760
:10E9D000EEFF231D1D6835B12846FFF7AAFF102161
:10E9E0002846FFF78EFB04F108031D6835B1284661
:10E9F000FFF79FFF10212846FFF783FB2046BDE865
:10EA000038401421FFF77DBB38BD0B6803604B68AD
:10EA1000436013B15A6801325A60704737B50446F3
:10EA200068460D46FFF7F1FF009B019A2360002323
:10EA3000626001A801930093FFF794FB35B1281D94
:10EA4000FFF790FB08212846FFF75BFB204603B049
:10EA500030BD826810B50AB901F06EF8C368BDE830
:10EA60001040184708B5006800F11001FFF7F1FFEA
:10EA700008BD826810B50AB901F05EF8C368BDE848
:10EA80001040184708B5006800F11001FFF7F1FFCA
:10EA900008BD000038B500230446036010200D4671
:10EAA000FFF72BFB28B10123C0E90133024BC560FE
:10EAB00003602060204638BDD4FD3F0238B50023F6
:10EAC00083608B6804460D462BB102229847EB68A1
:10EAD000E360AB68A360204638BD0000F0B589B0A4
:10EAE00004686846FFF756FF4FF00203D4E84F2F43
:10EAF000002A03D1C4E8413F0029F7D121D104F114
:10EB00000C0569462846FFF745FF0122631CC3E850
:10EB10008F2F002004F10803D3E8EF6FC3E8E20F62
:10EB2000002AF9D16EB1FFF773FD78B1294630465E
:10EB3000FFF78FFF3046FFF7FCFE10213046FFF74E
:10EB4000E0FA6846FFF733FF09B0F0BD314602A88E
:10EB5000FFF7B4FFE068B4F9105008B101F038F8DD
:10EB600006901020ADF81C50FFF7C7FA0546E8B133
:10EB7000002787601820FFF7C0FA044688B10146D5
:10EB8000876002A8FFF7DEFE049BA268A360059BD6
:10EB90000492E26806A9E36004F110000592FFF711
:10EBA000F9FE084B2C60EB60074BAB6006A8FFF743
:10EBB000FEFE02A8FFF7BDFE002229460348FFF72C
:10EBC00035FDB7E72DEB3F02A9ED3F02D3E93F0248
:10EBD0002DE9F04F8BB005460F46904699469DF8BB
:10EBE00050A0FFF74DFD07AE834638BB4FF62E739E
:10EBF000059005A93046ADF81830FFF7CBFE14207C
:10EC0000FFF77BFA044648B1022303700123C0E9F1
:10EC100001BB437031460C30FFF7BCFE284621464D
:10EC200040F8044BFFF736FF3046FFF7C0FE05A85B
:10EC3000FFF7BDFE28460BB0BDE8F08F0C23002483
:10EC40001420CDE908440793FFF757FA014618B19D
:10EC5000C0E901440470447004A80391FFF71AFF4F
:10EC60001E4B08200893FFF748FA044610B103A989
:10EC7000FFF7CBFE4A464146384600965FFA8AF3D4
:10EC80000994FFF70BFDB8B9039B01331B78DBB286
:10EC900093B905934FF69C7305A903A8ADF81830F6
:10ECA000FFF71CFF05A8FFF782FE05A80999FFF7EB
:10ECB000B5FE06A8FFF756FA03A905A8FFF7A5FEBB
:10ECC000059B069A2B6000236A6006A806930593AD
:10ECD000FFF748FA04A8FFF745FAABE725EE3F0235
:10ECE000012AF8B5054603D10B6803600020F8BD82
:10ECF000022A10D0032AF9D10468002CF6D004F1BE
:10ED00001000FFF754FE2046FFF713FE182120469F
:10ED1000FFF7F7F9EAE718200E68FFF7EEF9044667
:10ED200050B13146FFF7CAFE3069B6F9147008B128
:10ED300000F04EFF2061A7822C60D7E738B5002392
:10ED400083608B6804460D462BB102229847EB681E
:10ED5000E360AB68A360204638BD0000F0B5044610
:10ED600089B00D4601A81146FFF758FEA4B124B2A0
:10ED70001DB1284600F02CFF054601A803A9039504
:10ED8000ADF81040FFF7AAFE03A8FFF710FE02A897
:10ED9000FFF7E8F909B0F0BD0123019DD5E84F2F39
:10EDA000002A03D1C5E8413F0029F7D1EFD12B73E9
:10EDB0000122EB18C3E88F2F2B1DD3E8EF6FC3E8B8
:10EDC000E24F002AF9D1002EE1D02046FFF720FCC7
:10EDD000074660B1304605F10C01FFF74AFE3046A8
:10EDE000FFF7A7FD10213046FFF78BF9CFE731463B
:10EDF00003A8FFF7A3FF2B7B10208DF81C30FFF733
:10EE00007CF90546D0B187601420FFF776F90446F7
:10EE100078B10146876003A8FFF794FD059BA268BF
:10EE2000A360069B0592E268E3609DF81C300692A1
:10EE30002374074B2C60EB60064BAB6003A8FFF715
:10EE400078FD002229460448FFF7F0FBC7E700BF22
:10EE50004DEB3F0225EF3F02D3E93F02012A70B597
:10EE6000044603D10B680360002070BD022A0CD059
:10EE7000032AF9D10468002CF6D02046FFF759FD8B
:10EE800014212046FFF73DF9EEE714200E68FFF746
:10EE900034F9054620B13146FFF750FF337C2B741F
:10EEA0002560E1E7002240681146FFF775BC0022AB
:10EEB00040681146FFF78CBC00224068FFF77ABC1F
:10EEC0000022406881F00101FFF758BC0023406830
:10EED0001A461946FFF744BC002340681A461946F3
:10EEE000FFF730BC002240681146FFF71DBC00222E
:10EEF00040681146FFF7FCBB002202214068FFF783
:10EF000005BC002340681A46FFF7E4BB0322024B0E
:10EF10005A60024A1A60704784AE0710F0FD3F0243
:10EF20007047F8B5064615460C468F18BC4206D009
:10EF3000336830469B6814F8011B9847F6E728466B
:10EF4000F8BD0022007CFFF7CDB90021007CFFF75F
:10EF5000D7B90021007CFFF7E1B90021007CFFF761
:10EF6000EBB90021007CFFF7F5B910B50446142178
:10EF7000FFF7C7F8204610BD38B5044615464FF4D4
:10EF80007A730022C4E90123094B084621742360E7
:10EF90002946FFF7FBF9BF3008D16B69DB0705D5C0
:10EFA0006868FFF74DFCE868FFF74AFC204638BD6B
:10EFB0002CFE3F02704710B504461821FFF7A1F858
:10EFC000204610BDF0B5037D0E46062B4FF0000421
:10EFD0008DB000F1040712D000F1080515F8011DED
:10EFE0000A22304600F04FF9AF42044419D0002CF9
:10EFF000F4D02E21304600F037F90444EEE72F23F9
:10F000006A4639460A208DF80040FFF7CDF9684678
:10F01000FFF74EF83368024669463046DB6898478A
:10F02000044620460DB0F0BD10B50446044B112235
:10F03000002140F8043B00F095FD204610BD00BFC4
:10F0400054FE3F020346074A10B543F8042B01F172
:10F05000100251F8044B914243F8044BF9D10A785D
:10F060001A7010BD54FE3F0210B59DF8084044EAE6
:10F07000032343EA0242042342EA0161416003752B
:10F0800010BD000007B5064B0360CB7800938B786A
:10F090004A780978FFF7E8FF03B05DF804FB00BF8A
:10F0A00054FE3F02014B024A1A6070478CAE0710B3
:10F0B00060FE3F02002340681A46FFF70BBB0022A8
:10F0C00002214068FFF722BB002240681146FFF78B
:10F0D0000FBB002240681146FFF726BB00234068A3
:10F0E0001A461946FFF72EBB002340681A461946F8
:10F0F000FFF736BB00214068FFF778BB002140686E
:10F10000FFF782BB0022406881F00101FFF736BBA8
:10F1100000224068FFF74EBB002240681146FFF70F
:10F1200057BB002240681146FFF736BB2DE9F0437C
:10F1300095B014460D460746FFF776FF00211C22C6
:10F140000DA8009100F00EFD402320460C930021F5
:10F150006B460CAAFFF744F9044600284BD102463F
:10F1600001216868FFF7E0FA0221804622466868BC
:10F17000FFF7DAFA21468146009E002E3BD0002997
:10F1800039D17368022B03D00A2B11D0F669F4E74A
:10F19000B8F1000FFAD0716906A804313C1D07AD23
:10F1A000FFF770FF0FCD0FC42B6841462370EDE7CA
:10F1B000B9F1000FEAD0102201A8746900F0D2FC66
:10F1C000062301AD8DF8143004F1080318342A46E3
:10F1D00018685968083303C2A3421546F7D101A93C
:10F1E00006A83C1D07ADFFF72DFF0FCD0FC42B6800
:10F1F00049462370CAE70098FFF7E4F8384615B08F
:10F20000BDE8F083024B034A1A6000225A6070473F
:10F2100090AE07106CFE3F02F8B506460D4600247E
:10F220008F18BD420CD0336830469B6815F8011B1F
:10F230009847031E01DB1C44F3E7002C08BF1C4663
:10F240002046F8BD13B50446084659B10191FEF7B2
:10F250002FFF0246204623680199DB6802B0BDE813
:10F260001040184702B010BD03689B68184738B5B6
:10F270000D210546FFF7F8FF0A2104462846FFF74F
:10F28000F3FF204438BD0023012A98BF0A2230B57D
:10F290008BB08DF8243009AC0D46B1FBF2F101FBC7
:10F2A000125303F0FF03092B94BF30333733DBB223
:10F2B000AA4204F8013DEFD92146FFF7C3FF0BB086
:10F2C00030BD2DE9F04186B000AF05460E46381D31
:10F2D000142114463B60FFF7CFFA13280ED82846B6
:10F2E000391DFFF7AFFF04461EB12846FFF7BFFFE9
:10F2F000044420461837BD46BDE8F08100F10803FC
:10F3000023F00703E846ADEB030D2246411C3B68A2
:10F310006846FFF7B1FA69462846FFF793FF0446AF
:10F32000C546E1E70022014B9A60704798AE07108E
:10F3300010B5044608462170FFF760F80023204608
:10F34000636010BD10B504460068FFF779FA2046E7
:10F3500010BD10B50446006808B1FFF771FA00232C
:10F36000C4E90133236010BD38B504460D4600687A
:10F370000131FFF773FA10B1C4E90005012038BD6F
:10F3800010B50368044623B143688B4201D30120C2
:10F3900010BD2046FFF7E8FF0028F9D0A368002B36
:10F3A000F5D122681370F2E737B50D461146019288
:10F3B0000446FFF7E5FF019A28B92046FFF7C9FF89
:10F3C000204603B030BD2946A260206800F0BDFB96
:10F3D00000212268A368D154F2E713B5044659B15D
:10F3E00008460191FEF764FE019902462046FFF7A8
:10F3F000DBFF204602B010BDFFF7ABFFF9E710B509
:10F40000002304468AB0C4E90033A360237308468E
:10F4100001A900F06FF9204601A9FFF7DEFF2046A1
:10F420000AB010BD02220020044B1A60044B054AAA
:10F43000C3E900009A60FFF7CFB800BFB4AE071071
:10F44000A8AE07100000FFFF024B1A68024B1A60BB
:10F45000704700BF08AE0710B8AE07107047417480
:10F46000704708B5007CFFF739F820EAE07008BD66
:10F4700008B5007CFEF7ECFF20EAE07008BD08B597
:10F48000007CFFF701F840EAE07008BD08B5007C99
:10F49000FEF7ECFF40EAE07008BD007CFFF702B821
:10F4A00037B5457C04462DB1207C03B0BDE8304023
:10F4B000FEF7C0BF007C0191FFF710F8002801990A
:10F4C000F2DC284603B030BD10B504461421FEF727
:10F4D00018FE204610BD000010B54FF47A730446A4
:10F4E000084611460022C4E90123044B207423601E
:10F4F00001236374FFF700F8204610BDC4FE3F02ED
:10F50000007CFEF7DDBF417470477047704708B557
:10F510000021007CFFF736F840EAE07008BD08B52E
:10F520000121007CFFF72EF840EAE07008BD08B525
:10F53000007CFFF719F820EAE07008BD08B5007CF0
:10F54000FFF704F820EAE07008BD13B50446007C1C
:10F550000191FFF709F80028019901DC607C20B1D6
:10F56000207CFFF71DF820EAE07002B010BD007C9F
:10F57000FFF724B810B504461421FEF7C2FD20465B
:10F5800010BD000010B54FF47A7304460846002100
:10F59000C4E90113044B20742360012311466374F2
:10F5A000FEF7B8FF204610BDF4FE3F020022007CAB
:10F5B000FEF7BEBF10B504461422002100F0D2FAB7
:10F5C000204610BD10B588B003A8FFF7F3FF0C4C20
:10F5D000D4E88F1F11F001010FD120460191FEF7F1
:10F5E00092FD019948B103AA0648FFF7CBFF2046D8
:10F5F000FEF78EFD044800F0A2FA024808B010BDE4
:10F60000BCAE0710C0AE0710D3F53F020022406821
:10F610001146FFF789B8002240681146FFF7BCB8D1
:10F62000002240681146FFF7D3B800224068FFF778
:10F63000C1B80022406881F00101FFF79FB80023A4
:10F6400040681A461946FFF78BB8002340681A46EF
:10F650001946FFF777B8002240681146FFF748B80F
:10F66000002202214068FFF751B8002340681A4683
:10F67000FFF730B80422024B5A60024A1A60704702
:10F68000D4AE071024FF3F0210B50446FEF710FD6C
:10F69000013823182046834206D90278197800F8E9
:10F6A000011B03F80129F6E710BD70B50C46911E49
:10F6B00022291DD8254630B9302223449D4210D23C
:10F6C00005F8012BFAE7B0FBF2F602FB1600C1B217
:10F6D000092894BF30315731C9B2304605F8011BB3
:10F6E000E9E7002320462B70FFF7CEFF204670BDD0
:10F6F0000020FCE738B5031E0C4615460DDA2D2216
:10F70000B3F1004F0CBF1846584201230A702A4635
:10F710001944FFF7CAFF204638BD0123F9E700006E
:10F72000014B1860704700BF0CAE071008B50F4BB7
:10F7300043B1FFF747FF03681B699847002801DDC5
:10F7400000E000BF0A4B43B100F064F903681B6995
:10F750009847002801DD00E000BF064B0BB100F028
:10F760009FF9054B0BB100F0D1F908BD0000000076
:10F7700000000000000000000000000008B5FFF7D6
:10F78000D5FFFEF777FD014B186008BDF0AE0710FE
:10F790000548064A08B5121A054900F0D6F9054B86
:10F7A000054A1A6008BD00BF00B4071004B4071072
:10F7B000A4FF5F0800B407101E1C279A002307B59A
:10F7C0001A466FF077010093FEF74CFF03B05DF827
:10F7D00004FB000007B543880A2B08D0502B0BD13F
:10F7E000094B1B684BB103B05DF804EB1847FFF7FA
:10F7F000E5FF03B05DF804FB00231A466FF07701C4
:10F800000093FEF72FFFF4E7E0AE0710002110B5DC
:10F810001148FFF769F8114B1A68114B9A420CBF57
:10F82000012200220F4B1A7001D0FFF7B1FFFEF743
:10F8300013FD044600F09EF90B4B13B1204600E087
:10F8400000BF00210848FEF737FFBDE81040002147
:10F850000648FEF7F9BE00BFE9F73F0200B4071003
:10F860001E1C279ADCAE0710000000009DF83F0226
:10F870001B2837B5044602D9002003B030BDA0F1E3
:10F880000F03022B0BD9012821D800F06FF80021BB
:10F89000007CFEF76DFD80F00100C0B2EDE7114D78
:10F8A000D5E88F1F11F001010BD128460191FEF719
:10F8B0002AFC019928B10C48FFF73AFD2846FEF7CB
:10F8C00027FC094B1878FEF7A7FD0028D4D1083C87
:10F8D000012C05D800F09EF8007CFEF7F1FDDAE778
:10F8E0000120CAE7E4AE0710E8AE07101B2838B5C0
:10F8F00004460D460AD8FF2908D0FFF7B9FF28B102
:10F9000029462046BDE83840FEF7C2BC38BD10B5D8
:10F910000446FEF7CBFC031FDBB2012B08D92046BF
:10F92000FFF7A6FF20B12046BDE81040FEF7CCBC93
:10F93000002010BD7047000038B50A4B0446036034
:10F94000012309494361202000F0F4F8202560607C
:10F9500005492846A56000F0EDF8C4E903052046F6
:10F9600038BD00BF1800010058FF3F0230B50E4DF2
:10F9700087B0D5E88F1F11F0010411D12846FEF79A
:10F98000C2FB68B16846FFF7D7FF6A4621460748C1
:10F99000FFF7F2FA2846FEF7BBFB054800F0CFF868
:10F9A000024807B030BD00BFF4AE0710F8AE071034
:10F9B000FDF93F027047000038B5142504462A4679
:10F9C000002100F0CFF825804025074928462581F1
:10F9D000258200F0AFF804496060284600F0AAF8DC
:10F9E000E060204638BD00BF58FF3F0270477047B7
:10F9F00010B50446FFF7E0FF204610BD10B50446E1
:10FA0000FFF7DAFF204610BD10B50446FFF7D4FF1C
:10FA1000204610BD30B50E4D87B0D5E88F1F11F0D0
:10FA2000010411D12846FEF76EFB68B101A8FFF76B
:10FA3000DFFF214601AA0748FFF74EFD2846FEF7E3
:10FA400067FB054800F07BF8024807B030BD00BFF7
:10FA50000CAF071018AF07107DFA3F0210B50D4C20
:10FA600086B0D4E88F3FDB0711D42046FEF74BFB6E
:10FA700068B101A8FFF7C2FF012101AA0648FFF7FC
:10FA80002BFD2046FEF744FB044800F058F80248DE
:10FA900006B010BD10AF07102CAF0710B7FA3F0229
:10FAA00010B5FFF7DBFF074B044653B1FFF728FD06
:10FAB00038B1236820461B699847002801DD00E023
:10FAC00000BF10BD0000000010B50D4C86B0D4E89A
:10FAD0008F3FDB0711D42046FEF715FB68B101A864
:10FAE000FFF792FF022101AA0648FFF7F5FC204626
:10FAF000FEF70EFB044800F022F8024806B010BDE5
:10FB000014AF071040AF0710B5FA3F0210B5FFF76A
:10FB1000DBFF074B044653B1FFF7F2FC38B1236813
:10FB200020461B699847002801DD00E000BF10BD9A
:10FB300000000000FEF7E3BA08B5FEF7ABFE0023B5
:10FB400001461A46184600F061B80A44431E914225
:10FB500000D1704710B511F8014B914203F8014FE5
:10FB6000F9D110BD02440346934200D1704703F817
:10FB7000011BF9E738B5104B04461D68AB6BB3B9F0
:10FB80001820FEF74FFE0246A86320B90B4B422116
:10FB90000B48FEF79BFE0B490B4BC0E900130B4BC8
:10FBA000002183600B2383810120C2E90401AB6B38
:10FBB00000221C615A6138BD0CAE071059FF3F028C
:10FBC00070FF3F020E33CDAB34126DE6ECDE050064
:10FBD000024B0146186800F003B800BF0CAE0710D6
:10FBE00037B5044608460D46FEF762FA421C204629
:10FBF00011460192FEF75CFE044618B1019A2946AF
:10FC0000FFF7A3FF204603B030BD00002DE9F84305
:10FC1000DFF8BC8006461F460D46D8F80000914626
:10FC200000F058F8264B1C6834B9264C1C60264B53
:10FC300013B11B68C4F8883063681F2B07DDD8F840
:10FC4000000000F049F84FF0FF30BDE8F8835EB3E4
:10FC5000D4F8880088B91D4B23B9D8F8000000F00B
:10FC60003AF8F0E74FF48470FEF7DCFD0028F4D09A
:10FC70000023C0E94033C4F8880063680122022EE3
:10FC800040F8239002FA03F200EB8301D0F8003130
:10FC900043EA0203C0F80031C1F8807002BFD0F817
:10FCA00004311343C0F804316368D8F800005A1CCB
:10FCB0000233626044F8235000F00EF80020C4E7DD
:10FCC000E0AF071054AF071000000000EDE83F025E
:10FCD00070AE0710704770477047000089E13F021F
:10FCE000B1E13F02B5E13F020000000073746174AE
:10FCF000653A2025640A00627574746F6E5F6576DC
:10FD0000656E7400000000000000000041EA3F0240
:10FD100047EA3F0285EA3F0255EA3F0243EA3F02D3
:10FD20000000000000000000CBEF3F02C1EF3F02E7
:10FD3000B7EF3F02ADEF3F02A1EF3F0295EF3F0269
:10FD4000BDF13F02C5F13F0289EF3F0281EF3F0263
:10FD500077EF3F026DEF3F02F5F13F020000000038
:10FD600000000000E9EF3F0233F03F020BF03F02DA
:10FD7000EBEF3F0213F03F021BF03F0223F03F0284
:10FD80002BF03F0200000000000000008DF03F0259
:10FD90007DF03F027FF03F026170700000000000C4
:10FDA000000000007DF13F0287F13F0291F13F0228
:10FDB0009BF13F02A5F13F02B1F13F02BDF13F02CD
:10FDC000C5F13F02CDF13F02D9F13F02E1F13F021F
:10FDD000EBF13F02F5F13F0225592D256D2D2564EC
:10FDE0005425483A254D3A2553257A0061736374AA
:10FDF000696D6500000000000000000025F53F026D
:10FE000091F53F0269F53F02E1F23F0239F53F0209
:10FE100055F53F0247F53F0263F53F0227F53F02E4
:10FE20002BF53F020000000000000000D5F53F0266
:10FE30003DF63F0213F63F02E1F23F0205F63F02B4
:10FE4000D7F53F02E7F53F0237F63F02F7F53F02ED
:10FE5000CFF53F02000000000000000033F73F0232
:10FE600029F73F021FF73F02D5F63F0213F73F0283
:10FE700007F73F02BDF13F02C5F13F02FBF63F022B
:10FE8000F3F63F02E9F63F02DFF63F02F5F13F02EB
:10FE9000005245454E54206D616C6C6F6320737544
:10FEA00063636565646564002F746D702F6A656EA9
:10FEB0006B696E732D4743432D31302D706970652A
:10FEC0006C696E652D34385F323032303131323406
:10FED0005F313630363138303633392F7372632F15
:10FEE0006E65776C69622F6E65776C69622F6C69DD
:10FEF00062632F7374646C69622F72616E642E6327
:10FF000000000000F9E23F0231EA3F02D5EF3F0274
:10FF10006DF13F02CDF23F02EDF33F02EDF43F02FF
:08FF200011F53F023DF73F021D
:10FF280000000002BFFD3F020A00000007000000B9
:10FF3800B4FE3F0210AE07100000000000000000F1
:10FF480000000000000000000000000000000000A9
:10FF58000000000000000000000000000000000099
:10FF68000000000000000000000000000000000089
:10FF78000000000000000000000000000000000079
:10FF88000000000000000000000000000000000069
:0CFF98000000000000000000E4AF0710B3
:04FFA4000000000059
:10FFBE000200100000E05F08A8E05F0870E13F0259
:10FFCE0001000A00FFFFFFFFFFFF00000102030414
:10FFDE0005060708090A0B0C0D0E0F10111213144B
:0EFFEE0015161718191A1B1C1D1E1F203E0089
:04FFFC0078563412ED
:04000005085FE01898
:00000001FF
