:02000002B0004C
:1040000000400B000C5C0B00000006000C000502D9
:0840100004010410000000008F
:04401800E0580B0061
:10401C0009480A49884208B505D0094A824202D0AB
:10402C00121A01F07EFB0748074A0021121A01F010
:10403C0086FB014808BD00BF40E60320785B0B00FF
:10404C00ACE60320ACE60320EDE7032070B5074E89
:10405C00074C01F055FAA41BA4080025AC4200D172
:10406C0070BD56F8043B98470135F7E7245B0B000D
:10407C00485B0B0000F015B808B500F01BF8BDE864
:10408C00084001F0F5B900F035BA00F033BA00F091
:10409C0039BA0078B0FA80F04009704701230370F8
:1040AC00704708B501F012F9BDE808404FF41651FD
:1040BC0001F000B970B52F4B2F4E18888EB001F05F
:1040CC008FFA306001F002F92C4900F01BFF01F06F
:1040DC00FDF83468002C054649DA2D2100F016FF56
:1040EC0061420A22284600F020FF284600F011FF0A
:1040FC0023490AA800F093FF0A22316806A800F0B1
:10410C00CEFF06A90AA800F0F4FF1E4900F0FDFF3F
:10411C00014602A800F0A6FF06A800F035FF0AA889
:10412C0000F032FF184B029A1B788DF800301749BB
:10413C003C230AA800F098FB0B9C7CB16368013B04
:10414C0063605BB9236820469B689847A368013B72
:10415C00A3601BB923682046DB68984740F6B8304B
:10416C0000F000FA02A800F00FFF0EB070BD21465F
:10417C00B7E700BFB0E60320B4E60320F4580B0009
:10418C0006590B0015590B00ACE6032018590B000F
:10419C00014B00221A707047ACE6032008B5024BA5
:1041AC001B685B6C019308BD4802030008B5024B09
:1041BC001B685B68019308BD1802030008B5024B2D
:1041CC001B685B69019308BD1802030008B5024B1C
:1041DC001B685B68019308BD2C02030008B5024BF9
:1041EC001B681B6B019308BD2C02030008B5024B26
:1041FC001B681B6A019308BD2802030008B5024B1B
:10420C001B685B6A019308BD2802030008B5024BCA
:10421C001B689B6A019308BD2802030008B5024B7A
:10422C001B68DB6A019308BD2802030008B5024B2A
:10423C001B681B6B019308BD2802030008B5024BD9
:10424C001B685B6B019308BD2802030008B5024B89
:10425C001B681B6C019308BD2802030008B5024BB8
:10426C001B685B69019308BD6402030008B5024B2F
:10427C001B689B68019308BD6802030008B5024BDC
:10428C001B68DB68019308BD6802030008B5024B8C
:10429C001B68DB69019308BD3002030008B5024BB3
:1042AC001B681B6A019308BD3002030008B5024B62
:1042BC001B68DB68019308BD3C02030008B5024B88
:1042CC001B681B69019308BD3C02030008B5024B37
:1042DC001B685B69019308BD3C02030008B5024BE7
:1042EC001B689B69019308BD3C02030008B5024B97
:1042FC001B68DB69019308BD3C02030008B5024B47
:10430C001B681B6A019308BD3C02030008B5024BF5
:10431C001B689B6A019308BD3C02030008B5024B65
:10432C001B681B6C019308BD3C02030008B5024BD3
:10433C001B681B68019308BD4C02030008B5024BB7
:10434C001B685B68019308BD4C02030008B5024B67
:10435C001B681B69019308BD4C02030008B5024B96
:10436C001B685B69019308BD4C02030008B5024B46
:10437C001B689B69019308BD4C02030008B5024BF6
:10438C001B68DB69019308BD4C02030008B5024BA6
:10439C001B681B6A019308BD4C02030008B5024B55
:1043AC001B685B68019308BD2002030008B5024B33
:1043BC001B685B69019308BD2002030008B5024B22
:1043CC001B68DB6C019308BD2002030008B5024B8F
:1043DC001B685B6D019308BD2002030008B5034BFD
:1043EC001B68D3F88830019308BD0000200203003D
:1043FC0008B5034B1B68D3F89430019308BD00003B
:10440C002002030008B5024B1B685B69019308BDD1
:10441C004402030008B5024B1B681B6A019308BDDC
:10442C004402030008B5024B1B68DB6B019308BD0B
:10443C004402030008B5024B1B685B68019308BD7E
:10444C004002030008B5024B1B689B68019308BD32
:10445C004002030008B5024B1B68DB68019308BDE2
:10446C004002030008B5024B1B681B69019308BD91
:10447C004002030008B5024B1B685B69019308BD41
:10448C004002030008B5024B1B689B69019308BDF1
:10449C004002030008B5024B1B68DB69019308BDA1
:1044AC004002030008B5024B1B681B6A019308BD50
:1044BC004002030008B5024B1B681B6B019308BD3F
:1044CC004002030008B5024B1B685B6B019308BDEF
:1044DC004002030008B5024B1B681B6C019308BD1E
:1044EC004002030008B5024B1B685B6C019308BDCE
:1044FC004002030008B5024B1B681B68019308BD02
:10450C001C02030008B5024B1B685B68019308BDD5
:10451C001C02030008B5024B1B689B68019308BD85
:10452C001C02030008B5024B1B68DB6A019308BD33
:10453C001C02030008B5024B1B681B6B019308BDE2
:10454C001C02030008B5024B1B681B6C019308BDD1
:10455C001C02030008B5024B1B685B6C019308BD81
:10456C001C0203000021FFF721BF10B5836804462D
:10457C000BB901F0CDF8C3689847A3681BB10322AF
:10458C0021462046984720461021BDE81040FFF7F1
:10459C007EBD10B58368044613B1032201469847CB
:1045AC00204610BD10B54368013B0446436063B917
:1045BC0003689B689847A368013BA3602BB92368E9
:1045CC002046DB68BDE81040184710BD10B5044606
:1045DC00006808B1FFF7E6FF204610BD13B50B4687
:1045EC000246D0E900016C4684E8030093E803001E
:1045FC0082E8030094E8030083E8030002B010BDD6
:10460C00024800230360FFF7C9BD00BFB8E60320D2
:10461C0070470020704710B510210446FFF737FD96
:10462C00204610BD08B5FFF7F6FF08BD30B50022D7
:10463C004FF69C74026084808D888C800C68858019
:10464C0004600A6030BD10B504460068FFF75AFFDD
:10465C00204610BD38B5C468F4B12378022B03D1C1
:10466C0004F10C00FFF7EFFF656835B12846FFF742
:10467C0090FF10212846FFF70AFDA56835B12846A2
:10468C00FFF787FF10212846FFF701FD2046142174
:10469C00BDE83840FFF7FBBC38BD0B6803604B68C6
:1046AC00436013B15A6801325A60704737B50446FB
:1046BC0068460D46FFF7F1FF009B019A236062608C
:1046CC00002301A801930093FFF780FF35B1281D4B
:1046DC00FFF77CFF08212846FFF7D9FC204603B0E2
:1046EC0030BD826810B50AB901F012F8BDE810406F
:1046FC00C368184708B5006800F11001FFF7F1FF17
:10470C0008BD826810B50AB901F002F8BDE8104086
:10471C00C368184708B5006800F11001FFF7F1FFF6
:10472C0008BD000038B500230446036010200D4678
:10473C00FFF7A9FC28B10123C0E90133024B036048
:10474C00C5602060204638BD2C590B0038B50023BD
:10475C0083608B6804460D462BB102229847EB68A8
:10476C00E360AB68A360204638BD0000F0B589B0AB
:10477C0004686846FFF75AFF4FF00203D4E84F2F46
:10478C00002A03D1C4E8413F0029F7D125D104F117
:10479C000C0569462846FFF749FFBFF35B8F0123E1
:1047AC006370002004F10803BFF35B8F53E8006FC4
:1047BC0043E80002002AF9D1BFF35B8F6EB1FFF71B
:1047CC00FDFD78B129463046FFF78BFF3046FFF7E9
:1047DC00E0FE10213046FFF75AFC6846FFF733FF26
:1047EC0009B0F0BD314602A8FFF7B0FFE068B4F99C
:1047FC00105008B100F0E2FF06901020ADF81C50EC
:10480C00FFF741FC0546E8B1002787601820FFF749
:10481C003AFC044688B10146876002A8FFF7DEFE29
:10482C00049BA268A360059B049206A9E268E3605E
:10483C0004F110000592FFF7F9FE084BEB60084BF2
:10484C002C60AB6006A8FFF7FEFE02A8FFF7A1FEE6
:10485C00002229460348FFF7B9FDB7E701470B00D3
:10486C0085490B0077450B002DE9F04F8BB00546C1
:10487C009DF850A00F4690469946FFF7C3FD07AE32
:10488C00834638BB4FF62E73059005A93046ADF81C
:10489C001830FFF7CBFE1420FFF7F5FB044648B1A8
:1048AC00022303700123C0E901BB437031460C3075
:1048BC00FFF7BCFE2846214640F8044BFFF732FFB9
:1048CC003046FFF7C0FE05A8FFF7BDFE28460BB02B
:1048DC00BDE8F08F0C2300241420CDE90844079385
:1048EC00FFF7D1FB014618B1C0E9014404704470D4
:1048FC0004A80391FFF716FF1E4B08930820FFF73F
:10490C00C2FB044610B103A9FFF7C7FE00965FFA7D
:10491C008AF34A46414638460994FFF77BFDB8B9FD
:10492C00039B5B7803F0FF0293B94FF69C7305A9C8
:10493C0003A80592ADF81830FFF718FF05A8FFF78C
:10494C0082FE05A80999FFF7B1FE06A8FFF73EFE07
:10495C0003A905A8FFF7A1FE059B069A2B606A60C8
:10496C00002306A806930593FFF730FE04A8FFF773
:10497C002DFEABE7014A0B00012AF8B5054603D121
:10498C000B6803600020F8BD022A10D0032AF9D16D
:10499C000468002CF6D004F11000FFF754FE2046FA
:1049AC00FFF7F7FD18212046FFF771FBEAE7182007
:1049BC000E68FFF768FB044650B13146FFF7C6FEA0
:1049CC003069B6F9147008B100F0F8FE2061A782C6
:1049DC002C60D7E738B5002383608B6804460D46FE
:1049EC002BB102229847EB68E360AB68A3602046CA
:1049FC0038BD0000F0B589B004460D4601A811463B
:104A0C00FFF754FEA4B124B21DB1284600F0D6FE27
:104A1C00054601A803A90395ADF81040FFF7A6FEC3
:104A2C0003A8FFF710FE02A8FFF7D0FD09B0F0BDF8
:104A3C00019D0123D5E84F2F002A03D1C5E8413F42
:104A4C000029F7D1EFD12B73BFF35B8F6B702B1D4C
:104A5C00BFF35B8F53E8006F43E80042002AF9D1A3
:104A6C00BFF35B8F002EDED02046FFF7A7FC074676
:104A7C0060B105F10C013046FFF743FE3046FFF7FD
:104A8C0088FD10213046FFF702FBCCE7314603A826
:104A9C00FFF7A0FF2B7B8DF81C301020FFF7F3FAEB
:104AAC000546D0B187601420FFF7EDFA044678B1C3
:104ABC008760014603A8FFF791FD059BA268A360E0
:104ACC00069B0592E268E3609DF81C300692237405
:104ADC00064BEB60064B2C60AB6003A8FFF759FD4F
:104AEC00002229460348FFF771FCC7E721470B005A
:104AFC00054B0B0077450B00012A70B5044603D11A
:104B0C000B680360002070BD022A0CD0032AF9D177
:104B1C000468002CF6D02046FFF73BFD14212046FC
:104B2C00FFF7B5FAEEE714200E68FFF7ACFA05466E
:104B3C0020B13146FFF74EFF337C2B742560E1E743
:104B4C00002240681146FFF7ADBC002240681146B8
:104B5C00FFF7B8BC40680022FFF7ACBC40680022ED
:104B6C0081F00101FFF796BC002340681A461946F4
:104B7C00FFF788BC002340681A461946FFF77ABC39
:104B8C00002240681146FFF76DBC002240681146B8
:104B9C00FFF758BC406800220221FFF75BBC0023E2
:104BAC0040681A46FFF746BC024B03225A60024A81
:104BBC001A607047BCE6032048590B007047F8B5E3
:104BCC00064615460C468F18BC4206D0336814F8BE
:104BDC00011B9B6830469847F6E72846F8BD007CD9
:104BEC000022FFF703BB007C0021FFF707BB007C12
:104BFC000021FFF70BBB007C0021FFF70FBB007CF3
:104C0C000021FFF713BB10B514210446FFF73FFA40
:104C1C00204610BD38B5044615464FF47A73002271
:104C2C00C4E90123094B2174084623602946FFF788
:104C3C000DFBBF3008D16B69DB0705D56868FFF742
:104C4C0061FCE868FFF75EFC204638BD84590B0018
:104C5C00704710B518210446FFF719FA204610BD0D
:104C6C00F0B5037D062B8DB00E4600F104074FF016
:104C7C00000412D000F1080515F8011D0A22304677
:104C8C0000F053F9AF42044419D0002CF4D02E217B
:104C9C00304600F03BF90444EEE72F236A463946D0
:104CAC000A208DF80040FFF7D9FA684600F0A3FD02
:104CBC0033680246DB68694630469847044620460E
:104CCC000DB0F0BD10B5054B0446112240F8043B65
:104CDC00002100F034FD204610BD00BFAC590B0084
:104CEC000346074A10B543F8042B01F1100251F8A2
:104CFC00044B43F8044B9142F9D10A781A7010BD59
:104D0C00AC590B0010B59DF8084044EA032343EA64
:104D1C00024242EA016104234160037510BD0000A8
:104D2C0007B5064B0360CB7800938B784A780978EB
:104D3C00FFF7E8FF03B05DF804FB00BFAC590B00B4
:104D4C00014B024A1A607047C4E60320B8590B00A5
:104D5C00002340681A46FFF76DBB40680022022111
:104D6C00FFF778BB002240681146FFF76BBB0022AF
:104D7C0040681146FFF776BB002340681A46194677
:104D8C00FFF778BB002340681A461946FFF77ABB39
:104D9C0040680021FFF79EBB40680021FFF7A2BBD3
:104DAC004068002281F00101FFF774BB40680022CB
:104DBC00FFF780BB002240681146FFF783BB00223F
:104DCC0040681146FFF76EBB2DE9F04395B01446D1
:104DDC000D460746FFF776FF00211C220DA8009117
:104DEC0000F0ADFC40230C9320466B460CAA00212E
:104DFC00FFF744FA044600284BD1024601216868AB
:104E0C00FFF730FB0221804622466868FFF72AFB39
:104E1C00009E81462146002E3BD0002939D1736873
:104E2C00022B03D00A2B11D0F669F4E7B8F1000F6E
:104E3C00FAD0716906A8043107ADFFF771FF0FCDE9
:104E4C003C1D0FC42B6823704146EDE7B9F1000FF0
:104E5C00EAD07469102201A800F071FC06238DF8C9
:104E6C00143001AD04F108031834186859682A4647
:104E7C0003C20833A3421546F7D101A906A807AD12
:104E8C00FFF72EFF0FCD3C1D0FC42B682370494636
:104E9C00CAE70098FFF7EAF9384615B0BDE8F08389
:104EAC00024B034A1A6000225A607047C8E603207E
:104EBC00C4590B00F8B506460D468F180024BD42A8
:104ECC000CD0336815F8011B9B6830469847031EBD
:104EDC0001DB1C44F3E7002C08BF1C462046F8BD40
:104EEC0013B50446084659B1019100F084FC2368BF
:104EFC000199DB680246204602B0BDE81040184715
:104F0C0002B010BD08B5FFF7EBFF08BD03689B6846
:104F1C00184738B50D210546FFF7F8FF0A2104465E
:104F2C002846FFF7F3FF204438BD30B58BB0002383
:104F3C00012A8DF8243098BF0A2209AC0D46B1FB2A
:104F4C00F2F101FB125303F0FF03092B94BF303332
:104F5C003733DBB2AA4204F8013DEFD92146FFF703
:104F6C00BFFF0BB030BD0000014B00229A607047B0
:104F7C00D0E6032010B5044608462170FFF786F9E9
:104F8C0000236360204610BD10B504460068FFF78F
:104F9C00B9FA204610BD10B50446006808B1FFF7F9
:104FAC00B1FA0023C4E90133236010BD38B50446BF
:104FBC000D4600680131FFF7ADFA10B1C4E90005E8
:104FCC00012038BD10B50368044623B143688B42F9
:104FDC0001D3012010BD2046FFF7E8FF0028F9D0CF
:104FEC00A368002BF5D122681370F2E737B50D4694
:104FFC00114601920446FFF7E5FF019A28B92046B5
:10500C00FFF7C9FF204603B030BDA26029462068D7
:10501C0000F087FB2268A3680021D154F2E700233B
:10502C0013B5C0E9003304468360037341B10846ED
:10503C00019100F0E0FB019902462046FFF7D6FFF4
:10504C00204602B010BD884210B5044605D00B684E
:10505C002BB18A681946FFF7C9FF204610BDFFF730
:10506C009AFFFAE710B500230446C0E900338360C9
:10507C000373FFF7E8FF204610BD13B5044659B182
:10508C000846019100F0B7FB019902462046FFF754
:10509C00ADFF204602B010BDFFF77DFFF9E710B55C
:1050AC0004468AB00023C4E90033A3602373084686
:1050BC0001A900F0A5F901A92046FFF7DEFF204663
:1050CC000AB010BD70B505460E4609B9002070BD7A
:1050DC006AB1846814442146FFF774FF0028F5D0A8
:1050EC002868AB683146184400F060FBAC600120C6
:1050FC00EDE710B58A6809680446FFF7E3FF10B9BD
:10510C002046FFF748FF204610BD13B5044629B9C9
:10511C002046FFF740FF204602B010BD0846019123
:10512C0000F069FB019902462046FFF7CBFF0028EF
:10513C00EED0F0E7054B02221A60054B054A9A6047
:10514C000020C3E90000FFF729B900BFECE60320FB
:10515C00E0E603200000FFFF024B1A68024B1A60C6
:10516C00704700BF40E60320F0E60320704741740F
:10517C00704708B5007CFFF7C9F820EAE07008BD5D
:10518C0008B5007CFFF79AF820EAE07008BD08B576
:10519C00007CFFF7A3F840EAE07008BD08B5007C7E
:1051AC00FFF794F840EAE07008BD007CFFF79EB86A
:1051BC0037B5457C04462DB1207C03B0BDE83040AA
:1051CC00FFF774B8007C0191FFF7A0F80028019953
:1051DC00F2DC284603B030BD10B514210446FEF7AE
:1051EC0056FF204610BD000010B54FF47A730446EC
:1051FC00084611460022C4E90123044B2360012315
:10520C0020746374FFF78AF8204610BD1C5A0B00FB
:10521C00417470477047704708B50021007CFFF758
:10522C00A5F840EAE07008BD08B50121007CFFF745
:10523C009DF840EAE07008BD08B5007CFFF78EF8D9
:10524C0020EAE07008BD08B5007CFFF77FF820EA83
:10525C00E07008BD13B50446007C0191FFF77EF8A1
:10526C000028019901DC607C20B1207CFFF786F8D6
:10527C0020EAE07002B010BD007CFFF787B810B5D3
:10528C0014210446FEF703FF204610BD10B54FF461
:10529C007A73044608460021C4E90113044B2360C9
:1052AC000123207463741146FFF740F8204610BDAB
:1052BC004C5A0B00007C0022FFF740B810B51422AA
:1052CC000446002100F03BFA204610BD10B50F4CEF
:1052DC0088B003A8FFF7F2FF2178BFF35B8F11F0C2
:1052EC0001010FD120460191FEF7D3FE019948B17F
:1052FC0003AA0748FFF7CAFF2046FEF7CFFE054872
:10530C0000F009FA024808B010BD00BFF4E6032013
:10531C00F8E6032021520B00002240681146FFF7EB
:10532C00A1B8002240681146FFF7BCB800224068C3
:10533C001146FFF7C7B840680022FFF7BBB84068BA
:10534C00002281F00101FFF7A5B8002340681A463E
:10535C001946FFF797B8002340681A461946FFF71D
:10536C0089B8002240681146FFF76CB840680022EB
:10537C000221FFF76FB8002340681A46FFF75AB8AE
:10538C00024B04225A60024A1A6070470CE7032051
:10539C007C5A0B0010B5044600F02DFA0138231886
:1053AC002046834206D90278197800F8011B03F8CD
:1053BC000129F6E710BD70B50C46911E22291DD8A7
:1053CC00254630B9234430229D4210D205F8012BDA
:1053DC00FAE7B0FBF2F602FB1600C1B2092894BF43
:1053EC0030315731C9B205F8011B3046E9E70023CB
:1053FC0020462B70FFF7CEFF204670BD0020FCE747
:10540C0038B5031E0C4615460EDAB3F1004F4FF0BB
:10541C002D0214BF5842184601230A702A4619441B
:10542C00FFF7C9FF204638BD0123F9E7014B18608F
:10543C00704700BF44E6032008B50B4B43B1FFF7A0
:10544C0045FF03681B699847002801DDAFF3008016
:10545C00064B43B100F036F903681B6998470028E6
:10546C0001DDAFF3008008BD00000000000000006B
:10547C0008B5FFF7E1FFFEF7A1FE014B186008BD70
:10548C0028E703200548064A064908B5121A00F019
:10549C0048F9054B054A1A6008BD00BF00F403200B
:1054AC0004F40320745B0B0000F403201E1C279AE9
:1054BC0007B5002300931A466FF07701FEF798FFAB
:1054CC0003B05DF804FB000007B543880A2B08D035
:1054DC00502B0BD1094B1B684BB103B05DF804EB9F
:1054EC001847FFF7E5FF03B05DF804FB00230093BA
:1054FC001A466FF07701FEF77BFFF4E718E70320FD
:10550C0010B512480021FFF725F8114B1A68114B02
:10551C009A42114B0CBF012200221A7001D0FFF7E6
:10552C00B1FFFEF743FE044600F012F90B4B13B12A
:10553C002046AFF3008000210848FEF773FFBDE85A
:10554C00104007480021FEF749BF00BF39540B003B
:10555C0000F403201E1C279A14E70320000000000F
:10556C00D5540B00232813B502D9002002B010BD6E
:10557C00A0F10B03022B1AD8174C2178BFF35B8FC9
:10558C0011F001010BD120460191FEF782FD01992A
:10559C0028B11248FFF7EEFC2046FEF77FFD0F4BBB
:1055AC001878FEF77BFE0028DFD10120DEE701280A
:1055BC0009D800F047F80021007CFEF73FFE80F090
:1055CC000100C0B2D2E709380128EED800F07AF811
:1055DC00007CFEF793FEF2E71CE7032020E7032094
:1055EC000D2810B504469CBF0E34A4B22046FFF71C
:1055FC00B9FF50B103212046FEF7E8FD032804D182
:10560C002046BDE81040FEF7E9BD002010BD7047F4
:10561C0038B50A4B03600123044643610849202036
:10562C0000F074F8202560600549A560284600F05C
:10563C006DF8C4E90305204638BD00BF1800010011
:10564C00B05A0B0030B50E4D2978BFF35B8F11F0BB
:10565C00010487B011D12846FEF71BFD68B16846DE
:10566C00FFF7D6FF6A4621460648FFF7D3FA2846CD
:10567C00FEF714FD044800F04EF8024807B030BDA8
:10568C002CE7032030E703201B560B00704700006B
:10569C0038B5044614252A46002100F050F8258020
:1056AC004025074925812846258200F02FF804491A
:1056BC006060284600F02AF8E060204638BD00BF44
:1056CC00B05A0B0030B50E4D2978BFF35B8F11F03B
:1056DC00010487B011D12846FEF7DBFC68B101A8A4
:1056EC00FFF7D6FF01AA21460648FFF77DFD2846A5
:1056FC00FEF7D4FC044800F00EF8024807B030BDA9
:10570C0044E7032048E7032099560B00FEF7BDBC85
:10571C0008B5FEF707FF002301461A46184600F0AD
:10572C0073B80A44914200F1FF3300D1704710B5B1
:10573C0011F8014B03F8014F9142F9D110BD02440D
:10574C000346934200D1704703F8011BF9E70000B0
:10575C0038B5104B1D68AB6B0446B3B91820FEF777
:10576C00C9FE0246A86320B90B4B0C484221FEF738
:10577C00E9FE0B490B4BC0E900130B4B83600B2369
:10578C00838100210120C2E90401AB6B00221C6162
:10579C005A6138BD44E60320B15A0B00C85A0B00BD
:1057AC000E33CDAB34126DE6ECDE0500034611F87A
:1057BC00012B03F8012B002AF9D17047024B01464B
:1057CC00186800F003B800BF44E6032037B5044660
:1057DC0008460D4600F00FF8421C11462046019277
:1057EC00FEF7A8FE044618B1019A2946FFF799FF67
:1057FC00204603B030BD034613F8012B002AFBD121
:10580C00181A0138704700002DE9F843DFF8B8800A
:10581C000646D8F800001F460D46914600F056F893
:10582C00254B1C6834B9254C1C60254B13B11B68E7
:10583C00C4F8883063681F2B07DDD8F8000000F02F
:10584C0047F84FF0FF30BDE8F8834EB3D4F888002A
:10585C0088B91C4B23B9D8F8000000F038F8F0E7F1
:10586C004FF48470FEF746FE0028F4D00023C0E904
:10587C004033C4F88800636840F8239001229A40B2
:10588C0000EB8301D0F800311343C0F80031022E35
:10589C00C1F8807002BFD0F804311343C0F8043152
:1058AC006368D8F800005A1C0233626044F8235035
:1058BC0000F00EF80020C6E7E8E703205CE70320C1
:1058CC000000000001450B00A8E60320704770475C
:1058DC00704700001D400B0059400B0081400B002D
:1058EC0085400B0000000000416E616C6F672072F8
:1058FC00656164696E67203D20007B20616E616C80
:10590C006F67726561643A2000207D0073656E7369
:10591C006F7276616C000000000000000000000057
:10592C001D460B0023460B0061460B0031460B0055
:10593C001F460B000000000000000000AB4B0B00EA
:10594C00A14B0B00974B0B008D4B0B00814B0B00AD
:10595C00754B0B009D4D0B00A54D0B00694B0B00BF
:10596C00614B0B00574B0B004D4B0B00D54D0B00F7
:10597C000000000000000000C94B0B00134C0B0092
:10598C00EB4B0B00CB4B0B00F34B0B00FB4B0B000F
:10599C00034C0B000B4C0B0000000000000000003F
:1059AC006D4C0B005D4C0B005F4C0B00617070007C
:1059BC0000000000000000005D4D0B00674D0B0067
:1059CC00714D0B007B4D0B00854D0B00914D0B0069
:1059DC009D4D0B00A54D0B00AD4D0B00B94D0B00B3
:1059EC00C14D0B00CB4D0B00D54D0B0025592D2572
:1059FC006D2D25645425483A254D3A2553257A00BA
:105A0C0061736374696D65000000000000000000A4
:105A1C0079510B00E5510B00BD510B00C14E0B0031
:105A2C008D510B00A9510B009B510B00B7510B0072
:105A3C007B510B007F510B000000000000000000A8
:105A4C0023520B008B520B0061520B00C14E0B000A
:105A5C0053520B0025520B0035520B0085520B0094
:105A6C0045520B001D520B0000000000000000000E
:105A7C0083530B0079530B006F530B0025530B0012
:105A8C0063530B0057530B009D4D0B00A54D0B00A2
:105A9C004B530B0043530B0039530B002F530B008C
:105AAC00D54D0B00005245454E54206D616C6C6F0A
:105ABC006320737563636565646564002F746D7032
:105ACC002F6A656E6B696E732D4743432D31302DF4
:105ADC00706970656C696E652D34385F32303230A8
:105AEC00313132345F313630363138303633392F4C
:105AFC007372632F6E65776C69622F6E65776C6954
:105B0C00622F6C6962632F7374646C69622F7261AB
:105B1C006E642E63000000009D410B000D460B00CF
:105B2C00B54B0B004D4D0B00AD4E0B00754F0B00E4
:105B3C0041510B0065510B008D530B000000000010
:045B4C000000000055
:105B5000040000001400000003000000474E550040
:105B6000FC7BEA5FAB541407E8CD5B18940ACE4087
:045B700076B6A24320
:045B7400000000002D
:105B78000C5A0B0048E6032000000000000000005B
:105B8800000000000000000000000000000000000D
:105B980000000000000000000000000000000000FD
:105BA80000000000000000000000000000000000ED
:105BB80000000000000000000000000000000000DD
:105BC80000000000000000000000000000000000CD
:0C5BD8000000000000000000ECE70320CB
:105BE400FFFFFFFF00000102030405060708090A7E
:105BF4000B0C0D0E0F101112131415161718191A79
:085C04001B1C1D1E1F202800BF
:045C0C007856341280
:04000003B000401CED
:00000001FF
